:020000040800F2
:10000000C03900209D0100088B3500081B23000823
:100010008935000869050008253E00080000000039
:1000200000000000000000000000000005010008C2
:10003000350600080000000049010008A538000846
:10004000B7010008B7010008B7010008B7010008B0
:10005000B7010008B7010008B7010008B7010008A0
:10006000B7010008B7010008B7010008B701000890
:10007000B7010008B7010008B7010008B701000880
:10008000B7010008B7010008B7010008B701000870
:10009000B7010008B7010008B7010008B701000860
:1000A000B7010008B7010008B7010008B701000850
:1000B000B7010008B70100083D390008B701000882
:1000C000B7010008B7010008B7010008B701000830
:1000D000B70100080D3E0008B7010008193E0008EE
:1000E00037060008B7010008B7010008DFF810D094
:1000F00000F034F90048004719430008AFF30080CE
:10010000C0390020224B19680868B0E8F00F80F36E
:100110000988BFF36F8F4FF0000080F311884EF015
:100120000D0E70470000000006480068006880F36C
:10013000088862B661B6BFF34F8FBFF36F8F00DFE1
:1001400000BF00BF08ED00E0EFF30980BFF36F8F41
:100150000F4B1A6820E9F00F106008B54FF05000FF
:1001600080F31188BFF34F8FBFF36F8F07F0DCF878
:100170004FF0000080F31188BDE808401968086856
:10018000B0E8F00F80F30988BFF36F8F704700BFAE
:1001900064000020EFF305807047000006488047A8
:1001A00006480047FEE7FEE7FEE7FEE7FEE7FEE75C
:1001B000FEE7FEE7FEE7FEE73B390008ED0000083A
:1001C0002DE9F05F0546002092469B46884606468C
:1001D000814640241BE0284641464746224600F01F
:1001E00020F853465A46C01A914110D3114618467A
:1001F000224600F0A4F82D1A67EB01084F4622466C
:100200000120002100F09BF817EB00094E41201E51
:10021000A4F10104DFDC484631462A464346BDE8E6
:10022000F09F202A04DB203A21FA02F000217047D7
:1002300021FA02F3D040C2F120029140084319464E
:10024000704700000649074A0868504343F23902E4
:10025000104408604008704701490860704700007A
:10026000040100206D4EC64140EA01039B0703D004
:1002700009E008C9121F08C0042AFAD203E011F8E5
:10028000013B00F8013B521EF9D27047D2B201E0A7
:1002900000F8012B491EFBD270470022F6E710B58B
:1002A00013460A4604461946FFF7F0FF204610BDE4
:1002B00030B505462A460B4612F8010B13F8014BE0
:1002C00008B1A042F8D01CB1002802D06D1CF1E7A3
:1002D000284630BD421C10F8011B0029FBD1801AB2
:1002E0007047034611F8012B00F8012B002AF9D1C1
:1002F0001846704730B505460020034600E05B1CF9
:10030000934205D2EC5CC85C201A01D1002CF6D1D6
:1003100030BD30B50B46014600202022012409E003
:1003200021FA02F59D4205D303FA02F5491B04FAAE
:1003300002F52844151EA2F10102F1DC30BD202A8D
:1003400004DB203A00FA02F1002070479140C2F12C
:10035000200320FA03F3194390407047064C074DE1
:1003600006E0E06840F0010394E807009847103485
:10037000AC42F6D3FFF7BEFE648400088484000814
:1003800010B5012007F0B0F80C49C860081D05F051
:10039000E0FC0A48001D05F0EBFC0848083005F0B9
:1003A000D8FC0648083005F0E3FC054ABDE81040DB
:1003B0008021A2F1100003F037BF0000EC00002004
:1003C000BC3400200024244EDFF89090A046671E25
:1003D00035192846394600F06DF985F8018034B1A9
:1003E000305D0A2803D115F8010C0D2809D01A48F0
:1003F00000F028F9012826D0641CE4B2802CE7D351
:100400001FE017A11448FFF753FF58B1124800F03E
:1004100019F9032802D114A003F006FD0020C9F841
:10042000100006E013A10C48FFF742FF48B1C9F8DD
:10043000107080210848FFF730FF0848001D05F0C4
:100440009FFC0024C4E7044803F09AF900248021AB
:100450000148FFF722FFBBE72C340020EC0000200E
:100460004F4B0D0A0000000073656E6420627573C7
:10047000790D0A004552524F520D0A0070B50D46D3
:1004800004462146064803F0D5FE002806D029463A
:10049000044805F072FC0028F3D1801E70BD0000F6
:1004A000AC340020F40000202DE9F0411546069FF1
:1004B0001C4606463A4600F00FF94FF47A720221C4
:1004C0000DA000F009F930460C4E39467061301D20
:1004D00005F053FC68B1366946B93DB1802C00DDAA
:1004E0008024224606492846FFF7BEFE3046BDE876
:1004F000F0816FF00100FAE70D0A0000EC00002027
:100500003C35002070B51646054600F0E5F8064C6F
:100510003146201D656105F030FC08B1206970BDD1
:100520006FF0010070BD0000EC00002010B500214C
:10053000012002F09BF902F097F902F093F906F01E
:10054000FBFA002006F0FEFA02F0A0F900F062F8D3
:1005500003F0E2F8002003F0D3F800F006F8BDE85D
:100560001040002000F004B8FEE702F027BF0000B2
:1005700070B5C0F307414FF4FA656943FF2591FB5D
:10058000F5F198B0C0F30722C6B26020CDE90201B0
:100590004FF4FA614A4392FBF5F1022300240AAAC0
:1005A000049306940BC211904FF4FA60464396FBF5
:1005B000F5F00E941594164C1393129008212068B0
:1005C00001F0F8FB0021206801F0F4FB0421206811
:1005D00001F0F0FB082202A9206801F0F4FA0022E1
:1005E0000AA9206801F0EFFA042211A9206801F09D
:1005F000EAFA0821206801F08FFB0021206801F051
:100600008BFB0421206801F087FB18B070BD00004F
:1006100028000020012000F001B80000044B08B1C0
:10062000012200E000220221184600F0ECB900008F
:100630000008014070474FF4805000F0E3B872B6F4
:10064000FEE7000070B5054610A1FFF731FE114C22
:1006500008B1012013E0606930B10FA1FFF728FE57
:1006600010B128783E280CD00EA12846FFF720FEB6
:1006700048B10EA12846FFF71BFE20B103202070D1
:1006800070BD0220FBE7002070BD00002B495044E4
:100690002C000000EC00002041542B4349505345EE
:1006A0004E443D00627573790000000053454E448E
:1006B000204F4B0070B50D4604462146054803F017
:1006C000B9FD002804D02946012006F09BFAF4E782
:1006D00070BD0000900400202DE9F0410A4C0D4649
:1006E000074616464FF0FF31206807F04DF9A9B2D2
:1006F0003246384606F05AFA2068BDE8F041002339
:100700001A46194606F094BFF800002010B590F87C
:1007100021100022022905D00421816380F82020C5
:10072000012010BD01680B6823F00E030B60016807
:100730000B6823F001030B6090F84030C46B01217B
:1007400001FA03F3636080F8211080F8202010463E
:1007500010BD000010B590F821100024022903D02C
:100760000421816301243DE001680A6822F00E0241
:100770000A6001680A6822F001020A601A4A0168E8
:10078000914201D1012121E0174A1432914201D155
:1007900010211BE0144A2832914201D1891515E03D
:1007A000114A3C32914201D189140FE00E4A503275
:1007B000914202D14FF4803108E00B4A64329142F9
:1007C00002D14FF4801101E04FF08071064A083ADF
:1007D0005160012180F82110002180F82010416B28
:1007E00001B18847204610BD08000240B0F5806F77
:1007F00004D0B0F5805F03D103F01EB801F0D6BF7E
:1008000070470000044910B50A68024202D008602F
:10081000FFF7ECFF10BD0000140401402DE9F84F74
:10082000DFF8B8910024A9F1040B23460F2709F142
:10083000040AABF1040EC9E00125A5402A40AA42F2
:100840007DD1674ED1F804C0ACEB0608B44532D078
:1008500014DCBCF1030F3AD009DCBCF1000F2AD044
:10086000BCF1010F1CD0BCF1020F31D11DE0BCF175
:10087000110F17D0BCF1120F2AD119E0B8F5881F5B
:1008800019D006DCB8F5803F15D0B8F5801F1FD110
:1008900011E0B8F5001F0ED0B8F5041F18D10AE01A
:1008A000CB6815E0CB681B1D12E0CB6808330FE066
:1008B000CB680C330CE08B682BB1012B4FF0080395
:1008C00003D0456104E0042302E0056100E0002359
:1008D000FF2A01D8064601E000F104064FEA84052C
:1008E00001D9A5F12005D6F8008007FA05FC28EA11
:1008F0000C0803FA05F548EA0508C6F800804D68BB
:10090000ED0062D5374DAE6946F00106AE61AD69C6
:1009100024F0030605F001050095334D06EB050CA8
:10092000DCF80850A607360F07FA06F825EA08058E
:10093000DFF8B880404503D14FF0000817E044E0ED
:10094000DFF8AC80404502D14FF001080FE0DFF83E
:10095000A480404502D14FF0020808E0DFF89880FB
:10096000404502D14FF0030801E04FF0040808FAB7
:1009700006F848EA0508CCF808804D68D9F8006008
:10098000ED024D4601D5164300E096432E604D68BA
:10099000DAF80060AD02554601D5164300E09643F3
:1009A0002E604D68DBF80060AD035D4601D516434F
:1009B00000E096432E604D68DEF80060ED0375465A
:1009C00001D5164300E096432E60641C0D682A464C
:1009D000E5407FF431AFBDE8F88F00000804014026
:1009E000000011100010024000000140000801400A
:1009F000000C0140001001400014014080680840D4
:100A000000D0012070470AB1016170470904FBE77B
:100A100001488068704700000800002070B504009D
:100A200025D094F83D00002520B984F83C5020469C
:100A300000F0E6F9242084F83D002068016821F0E8
:100A4000010101602068016841F4004101602068F3
:100A5000016821F40041016000F0F6FB4D4A616835
:100A6000914201D84C4900E04C49884201D2012012
:100A700070BD4B492368B0FBF1F15E6826F03F067C
:100A80000E435E606368934206D94FF496735943F0
:100A90004FF47A73B1FBF3F12368491C1E6A26F008
:100AA0003F06314319626168914210D84900401EE7
:100AB000B0FBF1F2521CC2F30B02042A01D2042053
:100AC00022E0B0FBF1F0401CC0F30B001CE0A26878
:100AD000F2B301EBC10303EB0116431EB3FBF6F3C4
:100AE0005B1C43F480431B0549D092B301EBC10268
:100AF00002EB0111401EB0FBF1F0401CC0F30B00F3
:100B000040F4804040F400402168CA694CF6FF730D
:100B10009A431043C861D4E9071001432068026872
:100B200022F0C00211430160D4E9030101432068AF
:100B3000826848F2FF339A4311438160D4E905018A
:100B400008432168CA6822F0FF021043C86001E030
:100B50000EE016E02068016841F0010101602564A3
:100B6000202084F83D00256384F83E50002070BDAD
:100B700001EB4106431EB3FBF6F35B1CB3E7012018
:100B8000C2E701EB4101401EB0FBF1F0401CC0F395
:100B90000B00B7E7A086010080841E0000093D001D
:100BA00040420F002DE9F84F1F4690468A46044602
:100BB000DDF82890FFF72CFF054694F83D0020282B
:100BC0007FD11923012240492046009501F08CFC79
:100BD000002876D194F83C00012872D0012084F8D6
:100BE0003C0020680168C90703D1016841F0010198
:100BF00001602068016821F400610160212084F80F
:100C00003D00102084F83E0000262664C4F82480AD
:100C10006785608D20852D48E0622B464A46514607
:100C2000204601F093FB90B92068416980690090EB
:100C300036E02A464946204601F0FCFC50B1206CC3
:100C4000042804D12068016841F40071016001208A
:100C5000BDE8F88F606A216800780861606A401C0E
:100C60006062618D491E6185218D491E89B2218591
:100C700022685369DB435B070BD451B100781061E4
:100C8000606A401C6062608D401E6085208D401E41
:100C900020852A464946204601F0FAFB0028CED19D
:100CA000208D0028C5D154F83D0B016841F4007136
:100CB0000160202004F81E09E67766770020C7E768
:100CC000FFE70220C4E70000020010000000FFFF61
:100CD0002DE9FF4F83B09A46DDE91197934604460C
:100CE000DDF84080FFF794FE054694F83D0020288B
:100CF0007FD11923012240492046009501F0F4FBE1
:100D0000002876D194F83C00012872D0012084F8A4
:100D10003C0020680168C90703D1016841F0010166
:100D200001602068016821F400610160212084F8DD
:100D30003D00402084F83E0000262664C4F824804C
:100D4000A4F82A90608D20852C48E062CDE90075DA
:100D500053465A462046049901F046FB70B930E0EC
:100D60002A463946204601F065FC58B1206C04281B
:100D700004D12068016841F400710160012007B0CE
:100D8000BDE8F08F606A216800780861606A401CE5
:100D90006062218D491E89B22185628D521E628555
:100DA00022685369DB435B070BD469B1007810619B
:100DB000606A401C6062208D401E2085608D401E50
:100DC0006085208D0028CBD12A463946204601F087
:100DD0005FFB0028CAD154F83D0B016841F4007153
:100DE0000160202004F81E09E67766770020C6E738
:100DF000FFE70220C3E70000020010000000FFFF31
:100E000010B586B000210091019102910391006814
:100E10000F4988421AD10F4CA06940F00800A06128
:100E2000A069694600F008000490C02000901220DC
:100E30000190032003900848FFF7F0FCE06940F4BC
:100E40000010E061E06900F40010049006B010BDED
:100E50000054004000100240000C0140024881682C
:100E6000027811448160704708000020074810B5DF
:100E7000016841F010010160032000F0A7F80F2085
:100E800000F006F800F050F8002010BD00200240ED
:100E900030B505461F4887B0C16941F00401C16102
:100EA000C06906A900F00400009001A800F0ACF9A8
:100EB0000498B0B100F0C8F940001749174AB0FBD8
:100EC000F1F11748491E0260416040F2E73200210B
:100ED000C0E903218160816100F07EFC040003D041
:100EE00015E000F0B1F9E8E70D4800F0C1FC04009E
:100EF0000DD11E2000F03CF8102D07D2002229460B
:100F00001E2000F043F80748056000E0012407B008
:100F1000204630BD0010024040420F000008004053
:100F2000300500200C0000200F4808B5816941F011
:100F300001018161816901F001010091C16941F004
:100F40008051C161C069002200F0805000900F21E3
:100F5000901E00F01BF80548416821F0E06141F067
:100F60000071416008BD0000001002400000014017
:100F7000002809DB00F01F02012191404009800098
:100F800000F1E020C0F8001170470000F0B40E4BF3
:100F90001B680C46C3F30223C3F10705042D00D9D7
:100FA0000425191D072901D2002300E0DB1E0126BC
:100FB00006FA05F1491E214099409E40761E1640D2
:100FC0003143F0BC02F054BF0CED00E0064900F0E4
:100FD000070208684FF6FF03184040EA0220034A60
:100FE00010430860704700000CED00E00000FA05B7
:100FF0002DE9F84305460078354CC00754D0E06928
:101000000026C00008D4E06940F08050E061E0694B
:10101000012600F0805000902E480168C90512D4C6
:101020000168804641F480710160FFF7F1FC0746DA
:1010300005E000BFFFF7ECFCC01B642823D8D8F8FC
:101040000000C005F6D5206A10F4407021D0A988B0
:1010500001F4407181421CD0206A1F49012220F412
:1010600040700A6000220A602062C00711D0FFF7BA
:10107000CFFC074641F2883808E000BFFFF7C8FC04
:10108000C11B414502D90320BDE8F883206A8007CF
:10109000F4D5206A696820F44070084320621EB1CC
:1010A000E06920F08050E0612878800705D560680D
:1010B000A96820F44040084360602878C00605D540
:1010C0006068E96820F48000084360600020DBE786
:1010D0000010024000700040400442422DE9F047F9
:1010E0000F46050061D0434E306800F00700B8425B
:1010F00009D2306820F0070038433060306800F0D3
:101100000700B84251D128683B4C810712D54007EF
:1011100003D5606840F4E06060602878000703D57C
:10112000606840F4605060606068A96820F0F0007A
:10113000084360602878C00728D06868012810D06C
:101140002168022810D0890700292EDA616821F071
:10115000030101436160FFF75BFC804641F288397F
:101160000DE021688903EFE78901EDE7FFF750FC07
:10117000A0EB0801494502D90320BDE8F08760686B
:10118000696800F00C00B0EB810FEFD1306800F01F
:101190000700B8420BD9306820F0070038433060B0
:1011A000306800F00700B84201D00120E5E7287858
:1011B000400705D56068E96820F4E0600843606096
:1011C0002878000706D56068296920F4605040EA55
:1011D000C100606000F058F86168084AC1F303116B
:1011E000515CC8400649086006480068FFF750FE99
:1011F0000020C2E700200240001002402C800008BE
:10120000140000200C0000200F2202600C4A5368DA
:1012100003F003034360536803F0F00383605368F3
:1012200003F4E063C36052684FF4E06303EAD20260
:1012300002610448006800F0070008607047000081
:101240000010024000200240044805490068496837
:10125000044AC1F30221515CC840704714000020C9
:10126000001002403C8000080448054900684968B5
:10127000044AC1F3C221515CC840704714000020E9
:10128000001002403C8000080E4A51680E4801F0F0
:101290000C03042B11D0082B0FD10C48C1F383434E
:1012A000C903C05C0AD55168084AC1F34041921E87
:1012B000515C054A5043B0FBF1F070470449484384
:1012C000704700000010024000127A001C800008E5
:1012D00000093D002DE9F84F040070D02078C04D82
:1012E000C00749D06868C0F38100012807D068684A
:1012F000C0F38100022809D16868C00306D52868B8
:10130000800339D560680028E7D035E06068B0F523
:10131000803F0BD010B1B0F5A02F11D0286820F479
:1013200080302860286820F4802002E0286840F49B
:1013300080302860606890B1FFF76AFB06460AE0DB
:10134000286840F480202860F0E700BFFFF760FBCA
:10135000801B642873D828688003F7D50CE0FFF75A
:1013600057FB064605E000BFFFF752FB801B6428D1
:10137000F0D828688003F7D420789A4E80074FF081
:1013800001094FF0000839D5686810F00C0F07D03C
:101390006868C0F38100022809D16868C00306D4D8
:1013A0002868800714D52069012808D110E0206939
:1013B000B0B1C6F80090FFF72BFB074605E00AE145
:1013C000FFF726FBC01B0228C4D828688007F7D582
:1013D0002868616920F0F80040EAC10028600DE04B
:1013E000C6F80080FFF714FB074604E0FFF710FB88
:1013F000C01B022823D828688007F7D4207800076C
:101400002CD57948A169D9B1C0F80090FFF700FB4D
:10141000074604E0FFF7FCFAC01B02280FD8686AF1
:101420008007F7D571484FF4FA510068B0FBF1F02E
:10143000009000BF0098411E0091FAD20EE080E0BB
:10144000C0F80080FFF7E4FA074604E0FFF7E0FA8F
:10145000C01B022875D8686A8007F7D42078400737
:1014600060D5E8690027C00008D4E86940F08050E2
:10147000E861E869012700F0805000905C4801684D
:10148000C90513D40168834641F480710160FFF7F8
:10149000BFFA824606E000BFFFF7BAFAA0EB0A00E7
:1014A00064284ED8DBF80000C005F5D5E0680128B7
:1014B0000AD008B1052813D0286A20F0010028625C
:1014C000286A20F0040002E0286A40F00100286247
:1014D000E06841F2883B98B1FFF79AFA82460BE048
:1014E000286A40F004002862EEE700BFFFF790FA98
:1014F000A0EB0A0159455AD8286A8007F6D50CE0B6
:10150000FFF786FA824605E0FFF782FAA0EB0A01B0
:1015100059454CD8286A8007F6D41FB1E86920F0F5
:101520008050E861E06988B36968C1F381010229EC
:1015300044D00228C6F8608004D0FFF769FA044658
:1015400038E034E0FFF764FA074604E0FFF760FA9A
:10155000C01B02282BD828688001F7D4206AB0F578
:10156000803F05D16868A16820F4003008436860B6
:10157000D4E908010843696821F4741108436860DC
:10158000C6F86090FFF744FA044606E025E000BF85
:10159000FFF73EFA001B022809D828688001F7D51A
:1015A0001BE000BFFFF734FA001B022802D903201A
:1015B000BDE8F88F28688001F4D40EE00128F7D048
:1015C0006868226A00F48031914204D1616A00F4B3
:1015D0007010884201D00120EAE70020E8E700000F
:1015E00000100240000042428004424214000020E9
:1015F0000070004070B5040009D0606A002540B159
:1016000025616561A56294F8510040B10CE00120AC
:1016100070BD6068B0F5827FF4D0E561F2E784F8D0
:101620005050204600F040F8022084F85100206815
:10163000016821F040010160A088218900F48270D6
:1016400001F404410843A18901F400610843217CAD
:1016500001F002010843217D01F001010843218BC3
:1016600001F400710843217F01F03801084394F828
:10167000201001F080010843218D01F4005108433E
:1016800021680860A069042101EA104021684860CF
:101690002068C16921F40061C1616565012084F899
:1016A0005100002070BD000030B585B000240094CA
:1016B00001940294039400681449884223D1144889
:1016C000816941F480518161816901F48051049103
:1016D000816941F00401816180690E4D00F00400D0
:1016E0000490A020009002200190032003906946FE
:1016F0002846FFF793F84020CDE9000469462846C4
:101700000294FFF78BF805B030BD000000300140B7
:1017100000100240000801407047704710B590F873
:101720003C20012A22D0012280F83C20CA688C6823
:1017300022F4407222434C6822F4806222430C68F7
:1017400022F4006222430C6922F4805222434C6945
:1017500022F400522243C969002322F480420A4342
:1017600001684A6480F83C30002010BD022010BDA2
:1017700070B590F83C20012A26D0012480F83C4026
:10178000022280F83D2003685A689D6822F07006A6
:101790000A6832435A600D4B02689A4208D0B2F18F
:1017A000804F05D00A4B9A4202D00A4B9A4204D18C
:1017B000496825F080031943916080F83D4000217D
:1017C00080F83C10084670BD022070BD002C01401E
:1017D000000400400008004010B5040003D094F855
:1017E0003D0010B107E0012010BD002084F83C004E
:1017F000204600F01FF8022084F83D00211D2068DB
:1018000002F0A2F8012084F8460084F83E0084F833
:101810003F0084F8400084F8410084F8420084F8D6
:10182000430084F8440084F8450084F83D0000201B
:1018300010BD000008B50C4A01680C48914207D160
:10184000816941F400618161806900F4006009E010
:10185000B1F1804F07D1C16941F00101C161C06997
:1018600000F00100009008BD002C01400010024073
:1018700090F83D10012901D001207047022180F825
:101880003D100168CA6842F00102CA6000680B4955
:10189000884208D0B0F1804F05D00949884202D073
:1018A0000849884204D1816801F00701062903D064
:1018B000016841F00101016000207047002C0140E7
:1018C000000400400008004070B5044690F83C0059
:1018D0000025012817D0012684F83C60022084F8F6
:1018E0003D002068826822F0770222F47F42826005
:1018F0000868502838D00DDC20284FD005DC90B384
:10190000102811D14AE0022070BD302846D040286E
:101910000AD13BE060282FD070280DD0B0F5805F51
:1019200003D0B0F5005F12D0012584F83D6000209F
:1019300084F83C00284670BDCB68D1E901212068BD
:1019400002F04BF82068816841F0770109E0CB682C
:10195000D1E90121206802F040F82068816841F453
:1019600080418160E1E719E0CA684968206802F0B7
:10197000E9F85021206806E0CA684968206802F04A
:10198000F2F86021206802F032F8CEE7CA684968B0
:10199000206802F0D7F840212068F4E72268014669
:1019A0001046F0E770472DE9F04104460068C6682C
:1019B00005694FF00007A90713D5B10711D5F91E26
:1019C000016101202077206880698007204602D0CD
:1019D000FFF7E8FF04E000F0F5F8204600F09AF980
:1019E0002777680716D5700714D521686FF00400B3
:1019F0000861022020772068806910F4407F20462B
:101A000002D0FFF7CFFF04E000F0DCF8204600F042
:101A100081F92777280715D5300713D521686FF08E
:101A200008000861042020772068C06980072046EC
:101A300002D0FFF7B7FF04E000F0C4F8204600F042
:101A400069F92777E80616D5F00614D521686FF0F6
:101A500010000861082020772068C06910F4407FDA
:101A6000204602D0FFF79EFF04E000F0ABF82046CE
:101A700000F050F92777E80708D0F00706D0216872
:101A80006FF001000861204600F0CCF9280608D567
:101A9000300606D521686FF0800008612046FFF708
:101AA0003BFE680608D5700606D521686FF0400039
:101AB0000861204600F0C0F9A8060AD5B00608D58E
:101AC00021686FF0200008612046BDE8F041FFF773
:101AD00024BEBDE8F081000070B586B00021009101
:101AE0000191029103910068304B31490224314A3F
:101AF000984211D1886940F0040088618869039494
:101B000000F0040004908815CDE9000469461046F1
:101B1000FEF784FE06B070BD274E284DB0F1804F11
:101B20001BD0274A9042F5D1886940F008008861AF
:101B30008869694600F0080004901020CDE900048F
:101B400030460394FEF76AFE686820F4406040F077
:101B5000E06040F400606860DCE7886940F0040001
:101B60008861886900F004000490886940F00800EA
:101B700088618869694600F00800049048F2040012
:101B8000CDE9000410460394FEF748FE0820CDE995
:101B90000004694630460394FEF740FE686820F46E
:101BA000407040F0E06040F48070D4E7002C0140C9
:101BB0000010024000080140000C014000000140FC
:101BC00000040040704770B5044690F83C000026C1
:101BD0000D4601280FD0012084F83C006AB1042A88
:101BE0001DD0082A2FD00C2A3FD00126002084F8CF
:101BF0003C00304670BD022070BD206801F000FF3F
:101C00002068816941F0080181612068816921F0C3
:101C100004018161206881692A69114311E020680B
:101C200001F016FF2068816941F40061816120683C
:101C3000816921F480618161206881692A6941EAB2
:101C400002218161D2E7206801F02EFF2068C1697E
:101C500041F00801C1612068C16921F00401C1613E
:101C60002068C1692A69114311E0206801F048FF2A
:101C70002068C16941F40061C1612068C16921F433
:101C80008061C1612068C1692A6941EA0221C1619C
:101C9000ACE710B5040003D094F83D0010B107E0A4
:101CA000012010BD002084F83C00204600F01EF802
:101CB000022084F83D00211D206801F045FE01202E
:101CC00084F8460084F83E0084F83F0084F8400021
:101CD00084F8410084F8420084F8430084F844000A
:101CE00084F8450084F83D00002010BD08B5006868
:101CF0000649884208D10648C16941F00201C16124
:101D0000C06900F00200009008BD0000000400401F
:101D1000001002407047000010B50446022249B18D
:101D200004290ED0082913D094F84100012816D0B8
:101D3000012010BD94F83E000128F9D184F83E201E
:101D40000FE094F83F000128F2D184F83F2008E02A
:101D500094F840000128EBD184F8402001E084F899
:101D600041200122206801F02BFE0F4920688842A3
:101D700003D1426C42F4004242642068884208D099
:101D8000B0F1804F05D00949884202D00849884205
:101D900004D1816801F00701062903D0016841F0F0
:101DA00001010160002010BD002C01400004004032
:101DB0000008004030B504460D460068002201F0DE
:101DC000FFFD174B41F2111120688A10984209D18A
:101DD000036A0B4206D1036A134203D1436C23F416
:101DE000004343642068036A0B4206D1016A114232
:101DF00003D1016821F00101016001203DB1042DF2
:101E000008D0082D09D084F84100002030BD84F8A6
:101E10003E00FAE784F83F00F7E784F84000F4E773
:101E2000002C014000680349884201D1FFF716B831
:101E3000704700000008004070477047704700007E
:101E4000F8B5016804460868CA684B6910F00F0FBE
:101E50004FF0000559D003F0010602F490773743A4
:101E600065D0C10705D0D10503D5616C41F00101F2
:101E70006164410705D5D90703D0616C41F00201C7
:101E80006164810705D5D90703D0616C41F0040175
:101E90006164010707D502F02001314303D0616C72
:101EA00041F008016164616C00293AD0800604D5D4
:101EB000900602D5204601F097FE20684069616CCB
:101EC000C0F38010090700D460B3204601F065FE1E
:101ED00020684069400621D52068143050E8001F72
:101EE00021F0400140E80012002AF5D1E06BA8B1D2
:101EF0006D494163E06BFEF72DFC002811D0E06BCB
:101F0000416B01B0BDE8F040084783060FD593064A
:101F10000DD52046BDE8F84001F066BE2046FFF72B
:101F20008DFFF8BD2046FFF789FF6564F8BD266B7D
:101F30002023012E7CD1C6067AD5D60678D508682E
:101F40004868009048694FF00206400640D5E16BB2
:101F5000086840680004000CE8D0A28D8242E5D9F0
:101F6000E085886920282DD020680C3050E8001FBB
:101F700021F4807140E80012002AF5D12068143065
:101F800050E8001F21F0010140E80012002AF5D1BD
:101F90002068143050E8001F21F0400140E8001292
:101FA000002AF5D184F84230256320680C3050E8CF
:101FB000001F21F0100140E80012002AF5D1E06B6B
:101FC000FEF7A4FB6663A08DE18D401A81B22AE082
:101FD000A08DE18D401A81B2E08D0028A6D00029A5
:101FE000A4D022680C3252E8000F20F4907042E82E
:101FF0000007002FF5D12068143050E8002F22F0A0
:10200000010240E80027002FF5D184F84230256313
:1020100020680C3050E8002F22F0100240E8002326
:10202000002BF5D166632046FFF707FFF8BDFFE7F9
:1020300005062BD5150629D594F841002128F5D1A0
:10204000A068B0F5805F01D12069B0B1206A411C61
:102050002162216800784860E08C401E0004000C7A
:10206000E084E3D12068C16821F08001C16020686C
:10207000C16841F04001C160D8E7206A0088C0F320
:1020800008004860206A801C2062E5E74006CDD544
:102090005006CBD5CA68204622F04002CA6084F8B8
:1020A000413000F039F9C1E78B3B000870B50400FE
:1020B00004D094F84100002510B106E0012070BD65
:1020C00084F84050204600F023F8242084F8410092
:1020D0002068C16821F40051C160204601F0E6FD8E
:1020E0002068016921F4904101612068416921F073
:1020F0002A0141612068C16841F40051C1606564F2
:10210000202084F8410084F842006563002070BDFF
:1021100070B586B00024009401940294039403687F
:102120002E482D4E022103220515B34226D1836984
:1021300043F480438361836903F480430493836998
:1021400043F0040383618069254E00F0040004908D
:102150000802CDE90001039269463046FEF75EFBB6
:10216000CDE90054694630460294FEF757FB002241
:1021700005212520FEF70AFF252028E0194EB3424D
:1021800027D1C36943F48023C361C36903F4802367
:102190000493836943F0080383618069CDE90051AA
:1021A00000F00800CDE903200F4D69462846FEF7F0
:1021B00035FBE814CDE90004694628460294FEF791
:1021C0002DFB002205212720FEF7E0FE2720FEF749
:1021D000CFFE06B070BD0000003801400010024084
:1021E0000008014000480040000C014090F84230D7
:1021F000202B01D00220704721B11AB100230363C4
:1022000001F0B0BD0120704708B5012100910068C0
:102210001349884203D10122124913481CE0134993
:1022200088421BD10F4841780F48103802F018F847
:102230000F486946006804F0CBFE009838B10D499C
:102240004FF080500860BFF34F8FBFF36F8F054989
:1022500005480122491C4830FFF7C8FF08BD0000AF
:102260000038014004000020A00400200048004085
:102270000000002004ED00E02DE9F843044690F84A
:102280004100984616460D46202802D00220BDE89F
:10229000F88385B17EB100206064212084F841007C
:1022A000FEF7B6FBA6848146E684A0682027B0F539
:1022B000805F02D003E00120E9E7206910B12E46DB
:1022C00000250EE000260CE08021204601F065FD8F
:1022D000A8B9C6B116F8010B21684860E08C401E11
:1022E000E084E08C4B464FF00002CDF800800028DF
:1022F000EAD14FF04001204601F04FFD40B184F893
:1023000041700320C3E735F8020BC0F30800E3E790
:1023100084F841700020BAE77047FEE701684A6917
:10232000D24352050FD46FF480624A61002140F815
:10233000301F202242738173026942F0040202615D
:10234000017301207047002070470000F8B5044673
:10235000C06A1E460D461746082807D0012805D03A
:1023600010F5803F02D0206B122804D1206801684C
:1023700041F480710160134600224FF001112046A4
:10238000009600F0B1F840B120680068C00502D5A1
:102390004FF4007020640320F8BD2069B0F5804F31
:1023A0000ED00620216800EAD51040F0F000086148
:1023B00033463A460B49204600F0DEF878B902E091
:1023C00005F0FE0000E0E8B22168086105493346E7
:1023D0003A46891F204600F0CFF80028DCD00120C3
:1023E000F8BD0000080001002DE9F843044600682C
:1023F0000D46DDE9089701689846164641F480715C
:1024000001604B4600224FF001112046009700F07A
:102410006BF848B120680068C00502D54FF4007021
:1024200020640320BDE8F883216805F0FE00086100
:102430003B464A461549204600F09EF888B9206878
:102440004169806900903A464946204600F0F2F81A
:1024500048B1206C042804D12068016841F400715F
:1024600001600120DEE7F5B2B8F1010F09D0216863
:10247000300A08613A464946204600F0DBF8002859
:10248000E7D1206805610020CCE7000002000100D0
:1024900070B516460D4604461EE02046FFF73EFF87
:1024A00008B1012070BD681C16D0FEF7B1FA801B80
:1024B000A84200D885B920684069C04340070BD5C1
:1024C000002044F8300F20216173A073216941F08E
:1024D000200121612073E4E720684069C043400780
:1024E000DBD4002070BD00002DE9F0479846174668
:1024F0000D460446C1F30746DDF820902AE000BFF0
:10250000B8F1FF3F26D0FEF783FAA0EB0901414561
:1025100002D8B8F1000F1DD12068012E16D08069B5
:1025200025EA00000004000C12D00020B84211D1AE
:10253000002044F8300F20216173A073216941F01D
:102540002001216120730120BDE8F0874069E7E7A1
:102550000120EBE72068012E0AD0806925EA0000FF
:102560000004000C06D00020B842C9D00020EBE7E0
:102570004069F3E70120F7E72DE9F0479846164652
:102580000D4604464FF000094FF0200AC1F30747FB
:1025900023E020684069C043400515D420680168E5
:1025A00041F40071016021686FF480604861C4F8F3
:1025B000309084F83DA084F83E90216C41F00401F5
:1025C000216484F83C9021E0701C06D0FEF720FACC
:1025D000A0EB0800B04203D816B1012F1FD021E0B4
:1025E0002068012F15D0806925EA00000004000C46
:1025F00018D000BF44F8309F84F80DA084F80E90E6
:10260000216941F02001216184F80C900120BDE88E
:10261000F087406925EA00000004000CEAD1206838
:10262000406901E02068806925EA00000004000C90
:10263000AFD1ECE770B516460D4604461EE02046C5
:10264000FFF76CFE08B1012070BD681C16D0FEF7C4
:10265000DFF9801BA84200D885B920684069C043D3
:1026600000060BD5002044F8300F20216173A073C1
:10267000216941F0200121612073E4E7206840696D
:10268000C0430006DBD4002070BD00002DE9F84FE8
:10269000DFF8FC9000224846DFF8F8C0D0E902617C
:1026A000D9E900400B46341B61EB0001501EB4EB2E
:1026B0000C0C1546174671F1000C5ED3DFF8D8807C
:1026C0004FF0000CB8EB04047CEB010C55D34C46E6
:1026D000D4E904C1BCEB060661EB03012F4BF31AEE
:1026E00071F1000349D3DFF8B8C00023BCEB060644
:1026F0008B4142D300234FF00309EA4609EB43081C
:1027000008F1010C04EBCC0104EBC80CD1E9006129
:10271000DCE9008CB6EB080661EB0C015206DFF831
:102720008480120E6D1C4FF0000CB8EB06067CEB9B
:10273000010C01D242F00102082D04D10AF8072051
:10274000002215467F1C5B1C202BD7DB9DF8011057
:10275000C943CBB28DF801309DF80310C943CAB20A
:102760008DF803209DF80010994203D19DF80230A6
:10277000934204D00C4A00211160BDE8F88F08464E
:1027800001F044F89DF8020001F040F80020F4E761
:10279000F805002000127A0080969800E067350066
:1027A000C03B470340420F00300000202DE9F041BC
:1027B00004F0DAF9254C264FD4E90423861A61EB9C
:1027C000030200231D46BE1B934100D22560C4E9CD
:1027D0000401204A236802EBC3065B1CC6E9000122
:1027E0002360042B06D0442B02D1FFF74FFF256056
:1027F000BDE8F081D2E90260D2E900370146F31A60
:1028000060EB0700144FDF1B70F10007F0D3DFF817
:102810004CC00027BCEB03038741E9D3D2E9040293
:10282000801B62EB01020E49411A72F10001DFD3F5
:102830004FEAAC030021181A9141D9D3002000F0CF
:10284000E5FF002000F0E2FFD1E7000030000020AB
:1028500000E1F505F805002000127A008096980046
:1028600080841E0000F092BE00F0A6BE10B506489F
:102870004FF4005309B1002200E001221946FEF78F
:10288000C2F8002010BD00000010014010B500216A
:102890006B2000F017F800216C2000F013F80921DC
:1028A000192000F00FF806211A2000F00BF818216B
:1028B0001B2000F007F818211C2000F003F800206E
:1028C00010BD00001CB502238DF804004FF4FA700F
:1028D000009004488DF8051001AAD0210068FEF789
:1028E00061F91CBD200000202DE9FC41074615467A
:1028F0000E4600246846009304F0F4F860F30704E1
:10290000C4F3C00030702009387001A9009800F0AD
:10291000EFF80099019A014400910A44511A0229E2
:1029200004DB684604F0E4F828800120BDE8FC815F
:102930002DE9FC41074600240E46254668460092D4
:1029400004F0D0F80146204661F307000009022890
:1029500019D101A9009800F0CBF800990546084468
:10296000019900900144081A02280CDB684604F023
:10297000B9F860F3070404F001003870684604F009
:10298000B1F8307001252846BDE8FC812DE9FC5FD7
:102990008046DDE90EA00024CDE9000499461746E3
:1029A0000E462546DDF834B0684604F09BF860F327
:1029B0000704200903282CD1C4F3C00188F80010B3
:1029C000C4F34100306004F00100387001A90098A0
:1029D00000F08EF8009905460844019900904418CB
:1029E000224669460C9804F08CF890B10098201AA1
:1029F0000FD43068002804DD684604F079F8A9F89F
:102A000000000098211ACAF8001000990125CBF89F
:102A100000102846BDE8FC9F2DE9FC4781460A9836
:102A2000002400909A46164688462546684604F0DB
:102A300059F80146204661F307000009092826D10C
:102A400001A9009800F054F800990546084401993E
:102A500000904718381A022819DB684604F048F835
:102A6000A9F8000034600EE03168414502DD4FF006
:102A7000FF350CE0684604F035F831688B00491CDE
:102A800031604AF803000098B842EDD3012528468A
:102A9000BDE8FC870EB500238DF804308DF80830B2
:102AA00000920B46024602A901A8FFF71DFF9DF800
:102AB00004100B2900D101200EBDF8B5012500241A
:102AC0000E4607460C60641C042C0FDC012168468E
:102AD000B84701280AD19DF80000316800F07F0254
:102AE00002FB0511ED0131600006ECD42046F8BD73
:102AF000024A10600248FFF7E0BF0000E800002033
:102B00000542000810B503460020CA1701EB5264C5
:102B100024F07F02891ACAB2E111002902DD00BF48
:102B200042F080021A5400F10100EEDC10BD70B5D5
:102B300004680E4624B12046FDF7CCFB054601E0B3
:102B4000D0E901543046FDF7C5FB854205D12A4640
:102B500031462046FDF7CEFB08B1002070BD0120B4
:102B600070BD0000401C802801DA401C7047B0F5A1
:102B7000804F01DA801C70470349884201DAC01C8B
:102B80007047001D70470000FFFF1F00F8B50024CC
:102B9000069E05460090042901DAA01EF8BD62F3E6
:102BA000071463F3C304062A24F0060000D1801C36
:102BB000C1B2684604F0FEFB02210098FFF7A2FFB5
:102BC0000099084400903146684604F0F9FB0098EB
:102BD000401BF8BD2DE9F84307460090884614468F
:102BE0000025104600F082F88146FFF7BBFF404504
:102BF00002DDA81EBDE8F8832E46314666F30701C4
:102C00006846103104F0D6FB49460098FFF77AFF7A
:102C1000009908440090207A04281DD02FA168460E
:102C200004F0B4FB0321684604F0C4FBA07E66F305
:102C3000070560F34105E07E08B145F0040568072B
:102C400007D594F83D0060F3C40594F83C0060F3A8
:102C50004515206C40B905E022A1684604F096FBBA
:102C60000421E0E7A06C08B145F08005E06C08B9EC
:102C7000606D08B145F040052946684604F09AFBAE
:102C8000218B684604F09CFB04F10C0168460EC9D8
:102C900004F0A5FBE07E68B12434684694E80E0099
:102CA000243C04F09CFB3034684694E80E00303C31
:102CB00004F095FB280605D504F1400168460EC9CD
:102CC00004F08DFB680605D54C34684694E80E0088
:102CD00004F085FB0098C01B8CE700004D51497340
:102CE000647000004D5154540000000070B504465B
:102CF000007A0025032802D0042802D002E00C2527
:102D000000E00A2504F10C0007C800F0DBF90544D7
:102D1000E07EAD1C78B1243494E80700243C00F038
:102D2000D1F93034064694E80700303C00F0CAF987
:102D3000304405442D1D206C08B9A16C29B1D4E99B
:102D4000111200F0BFF90544AD1CE06C08B9616DCB
:102D500029B1D4E9141200F0B5F90544AD1C284698
:102D600070BD0C2200F0AFB82DE9FC5F1C46129E2E
:102D7000CDE90060DDF838B09046DDF830A0DDE93F
:102D80000F23894607465946204600F030F805468D
:102D9000FFF7E8FE484503DD6FF00100BDE8FC9F4A
:102DA000302168F3C30164F342016AF3000101A812
:102DB00004F000FB29460198FFF7A4FE019908449E
:102DC0000190DDE90F23594601A804F008FB002C0F
:102DD00003DD01A80D9904F0F3FA32461199019828
:102DE000FDF742FA019830440190C01BD6E770B558
:102DF0000E46114604461A463046049D00F062F91C
:102E00002844801C002C00DD801C70BD2DE9FF4F84
:102E100083B0064610A8894690E8800900249246AF
:102E2000254641463846009600F036F80190FFF7F7
:102E300099FE484503DDA01E07B0BDE8F08F64F39E
:102E4000070480346AF3C30424F00600801CC1B276
:102E5000684604F0AFFADDE90001FFF753FE009980
:102E6000084400906846069904F0AAFA0FE000BFF3
:102E700005EB450108EB810090E80E00684604F080
:102E8000AEFA1BF82510684604F094FA6D1CBD429A
:102E9000EEDB0098801BCFE72DE9F04102250F46BD
:102EA000064600240AE000BF04EB440007EB800064
:102EB00007C800F007F90544641CED1CB442F3DBBD
:102EC0002846BDE8F08138B5002304460090022969
:102ED00001DA981E38BD194663F3070162F3071142
:102EE000684604F067FA00210098FFF70BFE00998E
:102EF00008440090001B38BD1CB50C460F4800F07C
:102F000093FF0FA000F090FF206C0E4BC122C06811
:102F10000DA1CDE9004011A000F086FF08A000F04F
:102F200083FF064800F080FF05A000F07DFF206CC5
:102F3000C068BDE81C4002F04BBE000018830008CA
:102F40000A000000088000082E2E2F436F72652FA4
:102F50005372632F6D61696E2E63000025733A25ED
:102F60006420257328292E2E2E0A746F7069633A07
:102F70002025730A6D6573736167653A25730000D8
:102F80001FB525A000F050FF01F0BCFD04462BA1A9
:102F900002F088FA2BA1204602F004FA0A2003F07E
:102FA00045FD0146204602F0AFF90A2003F03EFD40
:102FB0000146204602F0B6FA0A2003F037FD01462A
:102FC000204602F02FFA0121204602F059F920464E
:102FD00001F01FFB10B11FA000F026FF254B0022BF
:102FE00025A1204602F028FB10B126A000F01CFF0E
:102FF00000208DF800002DA00390FDF76BF940F63E
:10300000B83502906A462CA1204601F087FE28467A
:1030100003F062FFF6E700000A77656C636F6D6589
:1030200020746F206D717474636C69656E742074A4
:103030006573742E2E2E0D0A0000000031383833CF
:10304000000000003139322E3136382E3130312E29
:10305000333400004D5154542042726F6B6572201E
:10306000636F6E6E656374206661696C65640D0ADA
:1030700000000000F92E00084D515454536D617248
:10308000740000004D5154542042726F6B657220E1
:1030900073756273637269626520746F70696331FE
:1030A000206661696C65640D0A00000074657374C4
:1030B0005F7461736B0D0A006D63755F7465737483
:1030C0000000000010B510B1FDF704F901460846F4
:1030D00010BD00001CB5FDF753F9FDF727FA0A48AB
:1030E0001824CDE900400023442208A10A4804F036
:1030F00041FD0020CDE900400346962207A10A4881
:1031000004F038FD1CBD00000000002041545F7039
:103110006172736500000000C50300084D515454EE
:103120005F5461736B000000812F00082DE9F047A8
:1031300086B0002446480094019402940394816967
:1031400041F010018161816901F0100104918169F0
:1031500041F020018161816901F0200104918169C0
:1031600041F004018161816901F0040104918169E8
:1031700041F0080181618069364F00F008004FF48A
:1031800000550490002229463846FDF73CFCDFF844
:10319000C890002213214846FDF735FCDFF8BCA09B
:1031A0004FF40248002241465046FDF72CFC0095A2
:1031B000022601250396CDE9015469463846FDF7FC
:1031C0002DFB112700970396CDE901546946484627
:1031D000FDF724FBCDE90256CDE900676946484674
:1031E000FDF71CFB03208DE8310069465046FDF7D2
:1031F00015FB1B4F2803CDE9000769460294504692
:10320000FDF70CFB4FF48240CDE9000469465046BF
:103210000294FDF703FBCDF800800396CDE901543D
:1032200069465046FDF7FAFA2020CDE900076946C5
:1032300002955046FDF7F2FA002205212820FDF7FD
:10324000A5FE2820FDF794FE06B0BDE8F08700003B
:10325000001002400010014000080140000C014035
:10326000000011100D4810B50B4901600C49416078
:1032700000214FF480428160C0E903124161816105
:10328000C1610162FDF7CAFB002803D0BDE8104010
:10329000FDF7D5B910BD0000005400400C0100201E
:1032A000A0860100104810B50E4901604FF48271EC
:1032B000416000218160C1604FF400720161C0E98A
:1032C00005120822C0E90721416281620A21C16218
:1032D000FEF790F9002803D0BDE81040FDF7AFB924
:1032E00010BD0000003001406001002010B596B014
:1032F00000240F9410941194129413941C2108A884
:103300001494FCF7CAFF20216846FCF7C6FF2A4840
:10331000284901604721C0E9011440F2E731C0E9C2
:1033200003148021C0E90541FEF756FA08B1FDF704
:1033300086F94FF480500F900FA91F48FEF7C4FA8A
:1033400008B1FDF77CF91C48FEF7A3FC08B1FDF7B6
:1033500076F9139413A918481494FEF709FA08B1E2
:10336000FDF76DF96020089040F2F310CDE90904F3
:103370000B940C940D94002208A90F480E94FEF7AC
:1033800022FC08B1FDF75BF900944FF40050CDE941
:103390000440029401940394694607480794FEF799
:1033A000BDF908B1FDF74BF90348FEF795FB16B0E0
:1033B00010BD0000002C0140B801002010B58EB0F7
:1033C00000240794089409940A940B941C216846DD
:1033D0000C94FCF762FF27484FF08041016040F2F7
:1033E0006711C0E9011440F2CF71C0E903148021D4
:1033F0008161FEF7F1F908B1FDF721F94FF4805032
:10340000079007A91B48FEF75FFA08B1FDF717F907
:103410001848FEF73EFC08B1FDF711F90B940BA913
:1034200014480C94FEF7A4F908B1FDF708F96020E0
:10343000CDE900040294002269460E480494FEF788
:10344000C2FB08B1FDF7FBF8042269460948FEF704
:10345000BAFB08B1FDF7F3F8082269460548FEF704
:10346000B2FB08B1FDF7EBF80248FEF735FB0EB0F2
:1034700010BD00000002002010B58AB0002407949F
:103480001C2168460894FCF708FF1848164901609B
:103490000721C0E9011440F2E731C0E9031480219B
:1034A0008161FEF7F6FB08B1FDF7C9F8079407A99B
:1034B0000E480894FEF75CF908B1FDF7C0F86020EB
:1034C00000904FF46170CDE901040022694607487D
:1034D0000494FEF778FB08B1FDF7B1F80348FEF756
:1034E000FBFA0AB010BD00000004004048020020B2
:1034F0000E4810B50C4901604FF4E13141600021E4
:1035000081600C22C160C0E904128161C161FEF7D3
:10351000CDFD08B1FDF793F8BDE810400122044944
:103520000248FEF763BE000000380140A0040020FE
:1035300004000020104A10B54FF4007102F500702D
:1035400000F072FE0E480D490C2201604FF4E1318B
:10355000416000218160C160C0E904128161C161E4
:10356000FEF7A4FD08B1FDF76AF8BDE8104001229E
:1035700004490348FEF73ABE90020020004800408C
:10358000E804002005000020FEE7FEE710B5A0B02B
:10359000002480216846FCF780FE0021204600F0D0
:1035A0006BF88021684600F09BF8641CE4B2082C9C
:1035B000F3D320B010BD000010B50224202000F08D
:1035C0007BF8204600F078F81F4804703F24A820BC
:1035D00000F072F8204600F06FF80024D32000F0CD
:1035E0006BF8204600F068F8402000F065F8A12054
:1035F00000F062F8C82000F05FF80021084600F0F3
:1036000025F87F24812000F057F8204600F054F878
:10361000A42000F051F8A62000F04EF8D52000F0CC
:103620004BF8802000F048F88D2000F045F8142079
:1036300000F042F80021012000F008F8BDE8104039
:10364000AF2000F039B800001800002070B50C461B
:10365000050001D0012D0ED10CB1012C0BD1DA20C7
:1036600000F02AF8280100EB4410BDE87040801CEF
:10367000C0B200F021B870BD70B50E4D0C4629786F
:10368000022905D1072803D8B030C0B200F014F8E1
:10369000287802280CD17F2C0AD804F00F0000F003
:1036A0000BF8102000EB1410BDE8704000F004B8D7
:1036B00070BD0000180000201CB500218DF804101A
:1036C0008DF805004FF4FA7000900448022301AA17
:1036D00078214068FDF766FA1CBD00001800002044
:1036E0000EB54FF4FA728DE807000448012340221A
:1036F00078214068FDF7ECFA0EBD000018000020AC
:10370000010004484FF00001006801D0FEF704BB3F
:10371000FEF750BB2400002070B58CB01C21684619
:10372000FCF7BBFD4FF480700225CDE907050024AE
:1037300007A91048CDE90945FDF770F80F4E0E486E
:103740004722316815C140F2E732E1E802248022C5
:1037500061E8044200F0F8F860200090049440F220
:10376000F310CDE90105002269463068FEF72BFA17
:103770000CB070BD00080140002C01402400002066
:103780002DE9F0410024054627466FF02F08661EFC
:1037900028193146FCF78EFF14B1285D3A2807D06E
:1037A000295D07EB870208EB42000F18641CEFE766
:1037B0000024802F15DB0CA000F036FB00202870C1
:1037C00010480661BDE8F08128193146FCF772FF08
:1037D000295D0D4800F044FD0A48083002F0D0FA97
:1037E000641CBC42F0DBEDE70D0A52656365697647
:1037F00065206461746120746F6F206C617267650D
:10380000210D0A00EC000020AC340020084B10B55C
:1038100099680A46491CCC1701EB546424F07F04D4
:10382000091B5C68A14202D0024CA054996010BDF3
:1038300030000020780500202DE9F04103F094F9D4
:1038400006460D46022000F082FD134F4FF48051D2
:103850003846FDF7D3F8002816D0104CD4E90401FF
:10386000321A65EB01030E480021FCF7A9FC6060E9
:1038700001213846FDF7C2F80028206806D0401C18
:10388000C4F80000C4E90465BDE8F081401E206072
:10389000606840426060F5E7000C0140480000208D
:1038A00000CA9A3B10B54FF0E020006904F0BAF965
:1038B000012803D0BDE8104003F000BE10BD30B5B4
:1038C00093B028216846FCF7E8FC14210AA8FCF70D
:1038D000E4FC002401200F9410941194010412942C
:1038E0008DE8130004904FF4E010CDE90810022594
:1038F00007956846FDF7EEFC08B172B6FEE70F20AB
:10390000CDE90A054FF48060CDE90C4002210AA8F8
:103910000E94FDF7E3FB08B172B6FEE712200F909C
:103920004FF40040CDE911040FA8FDF761FB00281A
:1039300001D072B6FEE713B030BD70470148FEF704
:1039400032B8000030050020F0B50268194B1A4C5F
:103950001A4D4FF08047984205D0B84203D0A0429C
:1039600001D0A84203D122F070064A68324398423F
:1039700005D0B84203D0A04201D0A84203D122F41E
:103980004074CA6822434C6922F0800222430260DC
:103990008A68C2620A688262984201D10969016339
:1039A000012141610169C90703D0016921F00101C9
:1039B0000161F0BD002C01400004004000080040FF
:1039C00010B501F01F030121046A99408C43046281
:1039D000016A9A401143016210BD10B5846842EA41
:1039E000032224F47F440A432243826010BD82688C
:1039F00022F070020A4342F0070181607047000024
:103A000030B5036A026A22F00102026242688469E8
:103A100024F073050C682C4323F002058B682B43BC
:103A20000A4DA8420BD123F00805CB6822F440725E
:103A30002B434D6923F0040315438A692A434260EE
:103A4000846149684163036230BD0000002C01407D
:103A500030B5026A036A23F0100303624368846985
:103A60000D6824F4E64444EA05248D6822F020021F
:103A700042EA05120B4DA8420ED1CD6822F0800219
:103A800042EA05124D6923F4406343EA85038D69D8
:103A900022F0400243EA8503436084614968816300
:103AA000026230BD002C014030B5036A026A22F484
:103AB000807202624268C46923F4007324F07305C3
:103AC0000C682C438D6843EA05230C4DA8420ED1A7
:103AD000CD6823F4006343EA05234D6922F4405284
:103AE00042EA05128D6923F4806342EA05124260BE
:103AF000C4614968C163036230BD0000002C01400D
:103B000030B5046A026A22F4805202624268C369D4
:103B10000D6823F4E64343EA05238D6824F400543A
:103B200044EA0534064DA84204D14D6922F480428E
:103B300042EA85124260C36149680164046230BD93
:103B4000002C014010B5036A046A24F001040462E9
:103B5000846924F0F00444EA021423F00A020A43C0
:103B60008461026210BD10B5036A046A24F0100477
:103B70000462846923F0A00324F4704444EA02320E
:103B800043EA01118261016210BD10B5406A002153
:103B9000C185C184FEF752F910BD01680C3151E8AE
:103BA000002F22F4907241E80023002BF5D1016828
:103BB000143151E8002F22F0010241E80023002BCC
:103BC000F5D1016B012909D101680C3151E8002FB1
:103BD00022F0100241E80023002BF5D1202180F8CB
:103BE000421000210163704708B590F84210222965
:103BF00001D0022008BD82684FF480539A4201D15F
:103C0000016921B1816A9A421BD04AB10AE0026877
:103C1000816A5268C2F308020A80816A891C08E03E
:103C2000026972B10268526802F07F020A70816A0A
:103C3000491C8162C18D491E0904090CC18503D04C
:103C40001BE002685268F1E70168CA6822F02002AE
:103C5000CA600168CA6822F48072CA6001684A6951
:103C600022F001024A61202180F8421000214163C4
:103C7000026B012A03D0FEF7C7FA002008BD0163DA
:103C800001680C3151E8002F22F0100241E80023B6
:103C9000002BF5D101680A68D20602D50A68496886
:103CA0000091818DFEF7C9F8E7E7000070B5044682
:103CB00000680169E26821F4405111430161216902
:103CC000A0680843616908432168CA6841F20C632F
:103CD0009A430243CA6020684169A26921F4407195
:103CE000114341611E492068884202D1FDF7BCFAA8
:103CF00001E0FDF7A9FA00EBC00101EB00126068DA
:103D000064218000B2FBF0F3B3FBF1F36FF018060F
:103D10007343B2FBF0F5B2FBF0F605EB83053223FB
:103D200003EB0515B5FBF1F5B6FBF1F605F0F00573
:103D300005EB0615B2FBF0F6B2FBF0F0B0FBF1F0CC
:103D40006FF01802504306EB800003EB0010B0FB4D
:103D5000F1F0216800F00F002844886070BD000079
:103D60000038014081628285C285002141642221A0
:103D700080F84210016921B10168CA6842F480727A
:103D8000CA6001684A6942F001024A610068C1687C
:103D900041F02001C160002070472DE9F8439846AA
:103DA00017460D460446089E24E0701C22D0FCF7FE
:103DB0002FFEA0EB0800B0421AD8CEB12068C1682F
:103DC000490717D5802D15D0402D13D00168C94360
:103DD00009070FD401680025406800902046FFF7CE
:103DE000DCFE0820606484F840500120BDE8F883C0
:103DF0000320FBE72068006835EA000004D00020BB
:103E0000B842D2D00020F1E70120F9E70148FEF7DF
:103E100017B80000A00400200148FEF711B8000008
:103E2000E8040020FEE700000FB4054B10B503A91D
:103E3000044A029800F040F810BC5DF814FB000042
:103E4000FD420008080100200FB4084B10B504A97A
:103E500002AA039800F030F8044602A9002000F0FE
:103E6000CCF9204610BC5DF814FB0000FB410008B3
:103E70000907090E002804DB00F1E02080F8001497
:103E8000704700F00F0000F1E02080F8141D70472B
:103E900002E008C8121F08C1002AFAD17047704713
:103EA000002001E001C1121F002AFBD170475060C1
:103EB000C0E90021086070472DE9FF4F8BB08846AC
:103EC0000546002606E025280BD0DDE90D129047B7
:103ED0006D1C761C28780028F5D10FB03046BDE85F
:103EE000F08F0024A146A2460122AE4900E004431F
:103EF00015F8013F203B02FA03F00842F7D1287879
:103F00002A2810D06FF02F022878A0F1300109295B
:103F100015D809EB890102EB410144F0020400EBE2
:103F200001096D1CF0E758F8041B5FEA010903D58D
:103F300044F40054C9F1000944F002046D1C2878CF
:103F40002E2817D115F8010F44F004042A280ED0AA
:103F50006FF02F022878A0F1300109290AD80AEB66
:103F60008A0102EB410100EB010A6D1CF2E758F8EF
:103F700004AB6D1C28786C280FD006DC4C2817D0B9
:103F800068280DD06A2814D104E0742810D07A284B
:103F90000FD10DE044F400140AE044F4801401E071
:103FA00044F440146978814202D104F580146D1CF8
:103FB0006D1C2878692865D006DC00288DD0632820
:103FC00027D0642806D15DE06E2808D073282AD057
:103FD000752877D0DDE90D129047761CE0E0C4F338
:103FE0000250022809D003280DD0D8F80010042868
:103FF0000DD00E6008F10408D2E0D8F80010F217D6
:10400000C1E90062F6E7D8F800100E80F2E70E7002
:10401000F0E718F8041B8DF8001000208DF801005F
:10402000EB46012003E058F804BB4FF0FF30610776
:104030004FF0000701D40AE07F1C57450DDA874294
:10404000FADB1BF807100029F6D106E07F1C874237
:10405000FCDB1BF807100029F8D1DDE90D23A9EBE3
:1040600007008146214600F0B1F83044C61904E04B
:10407000DDE90D121BF8010B90477F1EF8D2214697
:10408000484688E058F8040BC4F302514FF00A0B7D
:10409000032900D100B2042900D140B2002802DA7D
:1040A00040422D2102E0210505D52B218DF8241059
:1040B000012104E006E0E10710D02021F6E708AF77
:1040C000089113E058F8040BC4F302514FF00A0BA7
:1040D000032900D180B2042900D1C0B20021EEE74B
:1040E0005946FCF716F9303107F8011D0028F7D1C1
:1040F000ADEB070000F1200B600702D524F48034FB
:1041000001E04FF0010ADA4502DDAAEB0B0000E006
:104110000020824600EB0B0108980144A9EB010046
:104120000A90E00306D4DDE90D2321460A9800F049
:104130004DF806444FF0000908E009A911F80900FC
:10414000DDE90D12904709F10109761C08998945AE
:10415000F3DBE0030CD5DDE90D2321460A9800F0DE
:1041600035F8064404E0DDE90D1230209047761C56
:10417000BAF10001AAF1010AF5DC05E0DDE90D1252
:1041800017F8010B9047761CBBF10001ABF1010B56
:10419000F4DC0A982146DDE90D2300F005F8064419
:1041A0006D1C97E6092801002DE9F0410446002521
:1041B0001E461746880404D405E039462020B0473F
:1041C0006D1C641EF9D52846BDE8F0812DE9F0414B
:1041D000044600251E469046C80301D5302700E05E
:1041E0002027880404D505E041463846B0476D1CB9
:1041F000641EF9D52846BDE8F0810A68531C0B609F
:104200001070704730B5044606480023026803E08A
:1042100012F8015B25705B1C8B42F9DB02600846DB
:1042200030BD0000E8000020002343600360C0E9C7
:1042300002127047026843689A420ED00368C2684F
:10424000D25C0A700168491C016001688268914271
:1042500001D100210160002070474FF0FF3070470E
:1042600010B542688368521C934200D10022036853
:10427000934205D04468C36819554260002010BDC0
:104280004FF0FF3010BD00001CB5086C0B460F212D
:10429000C2680078CDE90002044A05A0FFF7C4FD1A
:1042A000BDE81C4010A0FFF7BFBD0000448000081F
:1042B0006D7174742D636C69656E743A2564202584
:1042C000732829202D0A746F7069633A2025732C96
:1042D00020716F733A2025642C200A6D6573736119
:1042E00067653A25730000000A00000010B5FBF76F
:1042F000B3FFBDE81040FBF7A5BF000013B50548AC
:104300004FF4FA73012269460068FDF7B5FF009883
:104310001CBD000060000020FCF7A8FDFFF7CFFAED
:10432000FEF704FFFEF79EFFFEF7BCFFFEF7DEFF81
:10433000FFF744F8FFF7A0F8FFF7DAF8FFF7FAF80D
:1043400001F0CCFCFEF7C6FE01F0DAFCFEE770B52A
:10435000054600244FF47A7603E0304602F036FC3E
:10436000641CAC42F9DB70BD10B5040006D000F04F
:10437000E1FB2046BDE8104001F0E9BC10BD0000A3
:104380007CB505460C4601A801F09CFE01A8E96A2F
:1043900001F090FE04F10800E96A01F08BFE05F1DE
:1043A0005400064601F0E4FC228BE169286AFBF721
:1043B0005BFF218B01AA284600F030FF304601F058
:1043C000DFFC208A0090054A40F2891104A0E368CE
:1043D000FFF72AFD11A0FFF727FD7CBD58800008DC
:1043E0006D7174742D636C69656E743A2564202553
:1043F000732829202D20726573656E642025642042
:104400007061636B6167652C207061636B65745FBD
:104410006964206973202564200000000A00000000
:104420002DE9F84F04466430DDF828A0994615467A
:104430000E464FF0000B0746009000F089FB78B95C
:10444000606E0AE0038AAB4206D1C268B24203D171
:104450006FF01600BDE8F88F0846B8420168F1D148
:10446000B0464E462F46D14606F1200001F064FCCE
:10447000050029D000F069FB05F10800824601F033
:1044800021FE5046E16A01F015FEC5F80C802F822E
:104490002E8305F12000C5F81490E8613246216AA8
:1044A000FBF7E2FE04F15800064601F061FCA06A49
:1044B00000F58070A062304601F062FC2846009949
:1044C00000F033FB5846C5E76FF00200C2E72DE964
:1044D000F041054664308846064600F039FB002866
:1044E00030D195F8500001282CD1686E27E007469E
:1044F000083001F0EAFD10B9B8F1010F1ED0F868DC
:1045000004280AD0052808D0062806D0072804D099
:10451000092807D00B2805D00AE039462846FFF7BE
:104520002FFF0BE0786918B100F019FB00207861CB
:104530003846FFF719FF284601F0DAF82046B04266
:104540000468D4D1BDE8F0812DE9F0470546643018
:10455000994617468846064600F0FAFAB0B9686EE2
:1045600011E0018AB9420DD1C26842450AD1B9F1C0
:10457000000F02D04269C9F80020FFF7F5FE284677
:1045800001F0B6F82046B0420468EAD10020BDE848
:10459000F0872DE9F04104466430064600F0D8FA71
:1045A0004FF00008A0B9606E0CE0074600F0C2FAB8
:1045B000786918B100F0D3FAC7F81480384601F0D2
:1045C000C6FB2846B0420568EFD1304600F0B6FA87
:1045D00094F82800A06204F15C00064600F0B8FAE6
:1045E00080B9E06D08E0074600F0A4FA3846C7F845
:1045F0000C8001F0ACFB2846B0420568F3D1304690
:1046000000F09CFA2046BDE8F0414FF0FF3100F089
:10461000BBBE00F001B800002DE9F0439BB004469A
:10462000002018906FF0030658226D4902A8FBF78E
:104630001BFEF4B1E06EE0B194F8501001291DD0DA
:10464000D4E90312002301F02DFB002813D1E06E02
:1046500001F024FB050013D0E06E01F02FFB2A4689
:1046600040F211415FA0FFF7DFFB6CA0FFF7DCFB1E
:1046700083E06FF001001BB0BDE8F0830020FAE793
:10468000574A40F215411C3A65A0FFF7CDFB63A0E5
:10469000FFF7CAFBA08CADF8200094F82800C0F307
:1046A00040008DF8220094F82800C0F303108DF824
:1046B00010002068059060681290A0681590A06AAC
:1046C000C10711D000F001008DF82300E06C806874
:1046D0000E90E06C00788DF84500E06C40788DF825
:1046E0004400E06C40680B90A18C4FF47A70414319
:1046F00004F1780001F0DEFC04F15400814601F081
:1047000037FB02AA616B206AFEF764FA071E36DDEA
:1047100019A8E16A01F0CEFC19AA3946204600F03A
:104720007DFD05001FD102270DF16408451E40469E
:1047300001F0CBFC40B94146204600F071FA054635
:10474000B84203D0002DF2DA022D07D118A9481C77
:10475000236BE269FEF7ECF8012801D0354602E050
:104760009DF860505DB1E06E01F0A8FA002120468E
:1047700000F00AFE484601F003FB28467BE7206F65
:104780004FF001010028204606D000F0FDFDA06A90
:1047900020F00C00A062EDE700F0F6FD32210520CC
:1047A000CDE900012246294929A0E36B01F05FFC15
:1047B000206728B101F07AFC206F01F074FCE6E775
:1047C000E06E01F07BFA064A35461C3A40F24A4157
:1047D00024A0FFF729FB11A0FFF726FBD7E7000075
:1047E000D88000086D7174742D636C69656E743ABD
:1047F0002564206D7174745F636F6E6E65637428D9
:1048000029202D206D71747420636F6E6E65637442
:10481000206572726F722025640000000A0000009B
:104820006D7174742D636C69656E743A256420250E
:10483000732829202D206D71747420636F6E6E654E
:10484000637420737563636573730000B15A000865
:104850006D7174745F7969656C645F7468726561A9
:10486000640000006D7174742D636C69656E743A38
:1048700025642025732829202D206D7174742079DA
:1048800069656C6420746872656164206372656137
:1048900074206661696C6564000000002DE9F041D8
:1048A00092B01646884607464FF0FF3500F026F8CE
:1048B000040006D032464146684600F0A1F922695C
:1048C00009E0D7F8800050B132464146684600F012
:1048D00097F9D7F880206946384690470025F06858
:1048E000FBF7F8FC0146F068FBF7D7FCD8E90110AC
:1048F000FBF7D3FC12B02846BDE8F0812DE9F0416A
:1049000004460E4654F85C0FA042056810D0C168FA
:10491000074659B13046FEF70AF920B93146F86822
:1049200000F0F8FE10B13846BDE8F0812846EBE70C
:104930000020F9E770B504465830054601F018FA32
:10494000E08CA0F57F41FE3906D0401CE08428466B
:1049500001F016FAE08C70BD0120F7E770B504464F
:104960000C2001F0E9F9E066011E41D0002008604A
:10497000486088600121E18494F8281041F288326F
:10498000E26284F85000206460643222A064A28451
:104990004021A1624FF47A71A163E064A061C82153
:1049A000E067E1634FF40075C4F8800029462046B3
:1049B00000F02EFB2946204600F098FF04F15C0031
:1049C00000F0C3F804F1640000F0BFF804F15400F3
:1049D00001F0BFF904F1580001F0BBF904F17400D3
:1049E00001F070FB04F1780001F06CFB002070BD59
:1049F000054A40F28E4105A0FFF716FA0EA0FFF718
:104A000013FA6FF0020070BD5B8100086D71747461
:104A10002D636C69656E743A2564202573282920FE
:104A20002D206D616C6C6F63206D656D6F727920E8
:104A30006661696C656400000A00000090F950002E
:104A4000032804D0012805D06FF00D0070476FF0E7
:104A5000170070470020704738B50446FFF7EEFF97
:104A6000050035D104F1740001F02FFB20B904F1E9
:104A7000780001F02AFB50B394F8280010F00C0FD6
:104A800012D0144A40F2E34113A0FFF7CDF91CA065
:104A9000FFF7CAF9E06E01F011F90221204600F09B
:104AA00073FC6FF00D0512E0616B206AFEF759F997
:104AB000011E04DD6A46204600F0B0FB0546A06AF0
:104AC0004FF0804101EB30104FEA3070A062284671
:104AD00038BD0000BD8200086D7174742D636C696F
:104AE000656E743A25642025732829202D2070696D
:104AF0006E67206F75747374616E64696E67000011
:104B00000A00000010B5842001F016F904000AD054
:104B10008421FBF7C2FB2046FFF720FF0028204638
:104B200002D001F014F9002010BD4B680A46194666
:104B3000FFF7BDB903C8416008607047D0E90012B3
:104B40004A601160006040607047006040607047DC
:104B50000168814201D1012070470020704710B5E3
:104B6000040010D0606800280DD0206800280AD00A
:104B70002046FFF7DFFF0020606020602046BDE890
:104B8000104001F0E4B810BD2DE9F84F04465C3048
:104B90000E460746FFF7DCFFD8B9E46D16E0E06883
:104BA00098B1D6F80C9082464846FBF793FB8046B6
:104BB0005046FBF78FFB01464046414505D1024672
:104BC00049465046FBF796FB30B12C46BC4225685F
:104BD000E5D10020BDE8F88FF0680090054A40F26A
:104BE000FB110548E368FFF71FF90448FFF71CF9BC
:104BF0000120EFE770800008148400081C440008BE
:104C000070B54C68164605463F2C00DB3F2489688A
:104C10002246FBF729FB002028552E6470BD0000BA
:104C200070B586B00E4600250A46044603A90395D2
:104C300000F066FA03990E2966D2DFE801F00765F5
:104C4000653B10404010651D6522655E083058D1F7
:104C50003048FFF7E9F830A0FFF7E6F851E02046CA
:104C6000FFF7ECFE28BB206B009001AA04A902A864
:104C7000E369FDF739FE37E03146204600F092FC4B
:104C80003FE0ADF800502046FFF7D8FE88B96846EF
:104C9000226BE169FDF7FEFE012832D101ABBDF8C0
:104CA00000200B212046FFF74FFC019808B1FFF7C9
:104CB00056FF26E03146204600F038F921E0204634
:104CC000FFF7BCFEE8B9206B009001AA04A902A876
:104CD000E369FDF709FE012813D19DF80820BDF80E
:104CE0000410204600F0DEF80023BDF804209DF8F3
:104CF00008102046FFF728FC03E0A06A20F00C0013
:104D0000A0622046FFF7A8FE002800D1039806B055
:104D100070BD0000B08300080A0000002DE9F047D4
:104D2000054690F850004FF0000888B014464FF048
:104D3000FF3647468946012806D06FF00D00C2F8BD
:104D4000088008B0BDE8F087E06820B1A16811B91B
:104D5000FBF7C0FAA060A068696B884208D93FA041
:104D6000FFF762F84CA0FFF75FF86FF00700E8E785
:104D700005F15400824600F0FBFF207858B1A96A83
:104D80004020B0EB112F02D86FF015064AE02846FC
:104D9000FFF7D0FDA080D4E90201CDE90297049786
:104DA000CDE90510A1886078CDE9000123780022C3
:104DB000696B286AFDF7D8FF071E33DD014607AA95
:104DC000284600F02BFA06002CD1207850B3286A30
:104DD0000090286A0190286A4FF0010968B168467E
:104DE00001F080FE414660F307010809032804D161
:104DF00069F3C30101A802F0DDFA2078012802D08E
:104E0000022806D00EE0CDF80080BBB2A2880421B3
:104E100004E0CDF80080A288BBB205212846FFF748
:104E2000FFFA06465046C4F8088000F0A9FF16F1C4
:104E3000160F01D0F01C0FD1184A40F2EA51184861
:104E4000FEF7F2FF14A0FEF7EFFFE86E00F036FF6A
:104E50000221284600F098FA304672E77075626CBD
:104E6000697368207061796C6F6164206C656E2075
:104E70006973206973206772656174657220746854
:104E8000616E20636C69656E742077726974652049
:104E900062756666657200000A000000DA8200082A
:104EA0006C8300082DE9FC41044616460D4601A816
:104EB00001F008F901A8E16A01F0FCF804F15400DE
:104EC000074600F055FF052E04D0062E15D06FF0D2
:104ED000090525E0009500230622616B206AFDF795
:104EE00055FE064600200090B3B22A460721204610
:104EF000FFF796FA050013D107E00095002307227B
:104F0000616B206AFDF742FE0646002E02DC6FF060
:104F10000A0505E001AA3146204600F07FF9054662
:104F2000384600F02DFF2846BDE8FC812DE9F0430E
:104F30008DB000268846044637460796FFF77EFD6B
:104F4000050014D107AAE169206B0292CDE9031094
:104F500008AB0AA8CDE9000305A8031D421C09A956
:104F6000801CFDF713FD012804D06FF010000DB078
:104F7000BDE8F083099810F0FF008DF814002FD0E1
:104F800004F15400814600F0F3FE9DF8140001285E
:104F900002D0022808D012E0BDF8180000900023CB
:104FA0000422616B206A06E0BDF81800009000231F
:104FB0000522616B206AFDF7E9FD061E05DC6FF036
:104FC0001105484600F0DCFE1FE00146424620463F
:104FD00000F024F90546484600F0D2FE002D14DB0F
:104FE0009DF8140002280BD1B3B20097BDF8182029
:104FF00006212046FFF714FA054610F1170F04D0DA
:1050000005AA0AA92046FFF749FC2846AFE7000099
:1050100070B50D4604000CD0E06908B100F097FEB1
:105020002563022D11D96FF0704085420DD22846BC
:105030000EE0104B40F25E420FA11CA0FEF7F4FE02
:1050400022A0FEF7F1FE002070BD4FF40070206337
:1050500000F072FEE06108B1206B70BD054A40F2BD
:105060006C411BA0FEF7E0FE18A0FEF7DDFE6FF01E
:10507000020070BD308100082E2E5C4D6964646CA6
:105080006577617265735C4D515454636C69656EEC
:10509000745C6D717474636C69656E745C6D71744D
:1050A00074636C69656E742E6300000025733A2585
:1050B0006420257328292E2E2E20636865636B20BB
:1050C000666F72206572726F722E00000A00000017
:1050D0006D7174742D636C69656E743A2564202556
:1050E000732829202D206D616C6C6F6320726561BF
:1050F0006420627566206661696C6564000000006A
:105100002DE9F74F4FF0000882B05FEA010904462D
:105110004FF00107454614D0049800F0D3FFE16A30
:10512000049800F0C7FF049800F0DCFF03463A46FD
:10513000E169E06E00F0C0FD6FF0060B012859D167
:1051400004E06FF0010005B0BDE8F08F049800F0B6
:10515000C9FF0126B246019005E000BF0AF1010A2D
:10516000BAF1040F10DCE06E01226946019B00F0E9
:10517000A3FD012808D19DF8000000F07F0101FB8C
:105180000655F6010006E9D4E06929463844FDF7E2
:10519000B9FCC619206B711981421DD92F46002612
:1051A000DDF81080B84200D80546404600F09AFF6E
:1051B00003462A46E169E06E00F07EFD28B1064410
:1051C000256BB91BA94200D20D46BE4201DA002868
:1051D000EBD16FF00700B6E7002D0DDD049800F06D
:1051E00081FF0346E0692A468119E06E00F064FD04
:1051F000A84201D05846A6E7E0690178404661F32D
:1052000007000109C9F80010A18C4FF47A704143DE
:1052100004F1780000F04EFF002094E72DE9F04102
:1052200005460E4617460024104600F04BFF384650
:10523000E96A00F03FFF0CE0384600F053FF0346F8
:10524000286A32460119E86E00F045FD002807DDA6
:105250000444B44204DA384600F037FF0028EBD0AB
:10526000B4420AD1A98C4FF47A70414305F174001D
:1052700000F020FF0020BDE8F0816FF01200FAE797
:1052800010B530B1826A61F341028262C2F340001C
:1052900010BD064B40F2C24205A112A0FEF7C4FDAC
:1052A00018A0FEF7C1FD002010BD00000D8200080F
:1052B0002E2E5C4D6964646C6577617265735C4D1C
:1052C000515454636C69656E745C6D717474636C75
:1052D00069656E745C6D717474636C69656E742E4F
:1052E0006300000025733A256420257328292E2E9B
:1052F0002E20636865636B20666F72206572726F23
:10530000722E00000A00000010B510B101600846BE
:1053100010BD064B40F2B94205A112A0FEF784FD74
:1053200018A0FEF781FD002010BD00006581000877
:105330002E2E5C4D6964646C6577617265735C4D9B
:10534000515454636C69656E745C6D717474636CF4
:1053500069656E745C6D717474636C69656E742ECE
:105360006300000025733A256420257328292E2E1A
:105370002E20636865636B20666F72206572726FA2
:10538000722E00000A00000070B5044658300D4629
:10539000064600F0EDFC84F850503046BDE8704001
:1053A00000F0EEBC10B510B1C160084610BD064B50
:1053B00040F2BC4205A112A0FEF736FD18A0FEF790
:1053C00033FD002010BD00009D8100082E2E5C4D95
:1053D0006964646C6577617265735C4D51545463A4
:1053E0006C69656E745C6D717474636C69656E7400
:1053F0005C6D717474636C69656E742E630000007B
:1054000025733A256420257328292E2E2E206368C3
:1054100065636B20666F72206572726F722E00007A
:105420000A00000010B510B18160084610BD064B9F
:1054300040F2BB4205A112A0FEF7F6FC18A0FEF751
:10544000F3FC002010BD00008B8100082E2E5C4D67
:105450006964646C6577617265735C4D5154546323
:105460006C69656E745C6D717474636C69656E747F
:105470005C6D717474636C69656E742E63000000FA
:1054800025733A256420257328292E2E2E20636843
:1054900065636B20666F72206572726F722E0000FA
:1054A0000A00000010B510B10161084610BD064B9E
:1054B00040F2BD4205A112A0FEF7B6FC18A0FEF70F
:1054C000B3FC002010BD0000AB8100082E2E5C4D07
:1054D0006964646C6577617265735C4D51545463A3
:1054E0006C69656E745C6D717474636C69656E74FF
:1054F0005C6D717474636C69656E742E630000007A
:1055000025733A256420257328292E2E2E206368C2
:1055100065636B20666F72206572726F722E000079
:105520000A00000010B510B14160084610BD064BDE
:1055300040F2BA4205A112A0FEF776FC18A0FEF7D1
:1055400073FC002010BD0000788100082E2E5C4DF9
:105550006964646C6577617265735C4D5154546322
:105560006C69656E745C6D717474636C69656E747E
:105570005C6D717474636C69656E742E63000000F9
:1055800025733A256420257328292E2E2E20636842
:1055900065636B20666F72206572726F722E0000F9
:1055A0000A00000030B587B0044600200490029045
:1055B00003902046FFF742FA00280DD1216BE069E5
:1055C000CDE9000102AB04AA012105A8FDF724FAE8
:1055D000012803D06FF00C0007B030BD029880287E
:1055E0000FD0002503ABBDF8142009212046FEF79B
:1055F000ABFF039838B14DB1FFF7B1FA6FF00E0071
:10560000EAE70125EEE76FF00200E5E7054644B161
:1056100029462046FFF7B8FA30B12846FFF79FFA2F
:1056200007E06FF00100D7E704F15C012846FFF7BF
:105630007CFA0020D0E700002DE9F04F89B0054644
:105640000020CDE90310CDE9050295F850001C4675
:10565000914688466FF01307012803D0B81D09B0A2
:10566000BDE8F08F05F15400834600F081FB284629
:10567000FFF760F9824606AA03A901208DE807001A
:1056800053460022696B286AFDF7C0FB061E24DD25
:10569000014607AA2846FFF7C1FD07001DD104B93E
:1056A000124C40462746FAF715FE153000F044FB31
:1056B000040017D0FFF749FA84F8089004F11400A9
:1056C000C4E903074146FAF70CFEB3B2524609217A
:1056D00028460094FEF7A4FE0746584600F050FB0B
:1056E0003846BCE76FF00207F7E700008942000880
:1056F00070B5044658300025064600F039FBA06A14
:10570000010A02D0A0F58070A062304600F038FB9C
:10571000284670BD2DE9F0418C680546002669B128
:1057200020000BD04868002808DD214602E0401E1A
:10573000491C761C0A780AB10028F8DC2846FAF7DA
:10574000C9FD02460021084636E06B5C232B06D0DB
:105750002B2B0ED0275CBB4245D1401C1FE0521EB4
:10576000914240D1E1B3681810F8010C2F2837D0CE
:1057700039E0002904DD6B1813F8013C2F2B32D1DE
:10578000531E994206DA6B185B782F2B02D053BB5D
:1057900000E0401CB04202DA235C2F2BF9D1491CF7
:1057A000914209DA6B5C2F2B06D1B04204DA235CFC
:1057B0002F2B01D1401C491C914201DAB042C4DBBD
:1057C000914201D1B0420BD0921E91420BD16A5C42
:1057D0002F2A08D129444978232904D1B04202D183
:1057E0000120BDE8F0810020FBE770B5054690F888
:1057F00050006FF0030401280CD02846FEF709FF83
:10580000040007D1284600F007F804460021284686
:10581000FEF75DFE204670BD2DE9F04106466FF0B3
:105820001405174A4FF41A7116A0FEF7FDFA204826
:10583000FEF7FAFA06F15C000746FFF789F910B1A6
:105840000020BDE8F081F06D4FF41D78046813E08E
:10585000D0E90313027A3046FFF7EEFE054610F159
:10586000160F07D1064A414612A0FEF7DDFA10488E
:10587000FEF7DAFA20462468B842E9D12846E0E784
:105880008A8000086D7174742D636C69656E743A5A
:1058900025642025732829202D206D7174742074AF
:1058A0007279207265737562736372696265200034
:1058B0001C4400086D7174742D636C69656E743AD4
:1058C00025642025732829202D206D717474206192
:1058D000636B2068616E646C6572206E756D2074F8
:1058E0006F6F206D756368200000000070B50D4675
:1058F00004000CD0206A08B100F029FA6563022D7B
:1059000011D96FF0704085420DD228460EE0104B41
:1059100040F274420FA11CA0FEF786FA22A0FEF707
:1059200083FA002070BD4FF40070606300F004FA49
:10593000206208B1606B70BD054A40F282411BA035
:10594000FEF772FA18A0FEF76FFA6FF0020070BD52
:10595000458100082E2E5C4D6964646C6577617228
:1059600065735C4D515454636C69656E745C6D7104
:105970007474636C69656E745C6D717474636C6966
:10598000656E742E6300000025733A25642025732C
:1059900028292E2E2E20636865636B20666F722087
:1059A0006572726F722E00000A0000006D717474CF
:1059B0002D636C69656E743A25642025732829204F
:1059C0002D206D616C6C6F63207772697465206245
:1059D0007566206661696C6564000000F8B50E4666
:1059E00005004FF0000401D01EB103E04FF0FF307E
:1059F000F8BDEE6A684600F065FB3146684600F087
:105A000059FB27E095F95000032810D0012813D046
:105A1000EA6F12B12846A96990472846FFF7E5FECC
:105A200040B1A86B00F069FB6FF00F00F8BD6FF09C
:105A30001700F8BD044620E069462846FFF7F0F855
:105A400004000ED401212846FEF741FD5FF00A0054
:105A500000F053FB684600F038FB0028D2D0204607
:105A6000F8BD14F10E0FFAD1054A40F2C93105A074
:105A7000FEF7DAF90DA0FEF7D7F96420E8E7000099
:105A80009F8000086D7174742D636C69656E743A43
:105A900025642025732829202D206D717474206EB3
:105AA0006F7420636F6E6E65637400000A000000FF
:105AB00070B5044690F8500001280BD01C4A4FF4F2
:105AC00077711CA0FEF7B0F929A0FEF7ADF9206FA1
:105AD00000F0EDFA4FF47A752046E16AFFF77EFF99
